{
  "contractName": "Cooldown",
  "abi": [
    {
      "anonymous": false,
      "inputs": [
        {
          "indexed": false,
          "internalType": "address",
          "name": "sender",
          "type": "address"
        },
        {
          "indexed": false,
          "internalType": "uint256",
          "name": "amount",
          "type": "uint256"
        }
      ],
      "name": "Deposit",
      "type": "event"
    },
    {
      "anonymous": false,
      "inputs": [
        {
          "indexed": false,
          "internalType": "address",
          "name": "sender",
          "type": "address"
        }
      ],
      "name": "Withdraw",
      "type": "event"
    },
    {
      "inputs": [
        {
          "internalType": "uint256",
          "name": "deadline",
          "type": "uint256"
        }
      ],
      "name": "deposit",
      "outputs": [],
      "stateMutability": "payable",
      "type": "function",
      "payable": true
    },
    {
      "inputs": [
        {
          "internalType": "uint256",
          "name": "id",
          "type": "uint256"
        }
      ],
      "name": "withdraw",
      "outputs": [],
      "stateMutability": "nonpayable",
      "type": "function"
    }
  ],
  "bytecode": "0x608060405234801561001057600080fd5b50610695806100206000396000f3fe6080604052600436106100295760003560e01c80632e1a7d4d1461002e578063b6b55f2514610057575b600080fd5b34801561003a57600080fd5b506100556004803603810190610050919061040f565b610073565b005b610071600480360381019061006c919061040f565b61021e565b005b600080600083815260200190815260200160002090506000600181111561009d5761009c61043c565b5b8160050160009054906101000a900460ff1660018111156100c1576100c061043c565b5b14610101576040517f08c379a00000000000000000000000000000000000000000000000000000000081526004016100f8906104c8565b60405180910390fd5b42816004015411610147576040517f08c379a000000000000000000000000000000000000000000000000000000000815260040161013e90610534565b60405180910390fd5b8060010160009054906101000a900473ffffffffffffffffffffffffffffffffffffffff1673ffffffffffffffffffffffffffffffffffffffff166108fc82600301549081150290604051600060405180830381858888f193505050501580156101b5573d6000803e3d6000fd5b5060018160050160006101000a81548160ff021916908360018111156101de576101dd61043c565b5b02179055507ff67611512e0a2d90c96fd3f08dca4971bc45fba9dc679eabe839a32abbe58a8e336040516102129190610595565b60405180910390a15050565b60016000815480929190610231906105df565b91905055506040518060c0016040528060015481526020013373ffffffffffffffffffffffffffffffffffffffff168152602001600073ffffffffffffffffffffffffffffffffffffffff168152602001348152602001828152602001600060018111156102a2576102a161043c565b5b81525060008060015481526020019081526020016000206000820151816000015560208201518160010160006101000a81548173ffffffffffffffffffffffffffffffffffffffff021916908373ffffffffffffffffffffffffffffffffffffffff16021790555060408201518160020160006101000a81548173ffffffffffffffffffffffffffffffffffffffff021916908373ffffffffffffffffffffffffffffffffffffffff160217905550606082015181600301556080820151816004015560a08201518160050160006101000a81548160ff021916908360018111156103905761038f61043c565b5b02179055509050507fe1fffcc4923d04b559f4d29a8bfc6cda04eb5b0d3c460751c2402c5c5cc9109c33346040516103c9929190610636565b60405180910390a150565b600080fd5b6000819050919050565b6103ec816103d9565b81146103f757600080fd5b50565b600081359050610409816103e3565b92915050565b600060208284031215610425576104246103d4565b5b6000610433848285016103fa565b91505092915050565b7f4e487b7100000000000000000000000000000000000000000000000000000000600052602160045260246000fd5b600082825260208201905092915050565b7f4f72646572206973206e6f742063726561746564000000000000000000000000600082015250565b60006104b260148361046b565b91506104bd8261047c565b602082019050919050565b600060208201905081810360008301526104e1816104a5565b9050919050565b7f4f72646572206973206e6f7420636f6d706c6574656400000000000000000000600082015250565b600061051e60168361046b565b9150610529826104e8565b602082019050919050565b6000602082019050818103600083015261054d81610511565b9050919050565b600073ffffffffffffffffffffffffffffffffffffffff82169050919050565b600061057f82610554565b9050919050565b61058f81610574565b82525050565b60006020820190506105aa6000830184610586565b92915050565b7f4e487b7100000000000000000000000000000000000000000000000000000000600052601160045260246000fd5b60006105ea826103d9565b91507fffffffffffffffffffffffffffffffffffffffffffffffffffffffffffffffff820361061c5761061b6105b0565b5b600182019050919050565b610630816103d9565b82525050565b600060408201905061064b6000830185610586565b6106586020830184610627565b939250505056fea264697066735822122042ae5540a8978d6eca5a82e02fca50f8e518edcd8c4c664339a4e48df1a0e43164736f6c63430008100033",
  "immutableReferences": {},
  "source": "// SPDX-License-Identifier: MIT\r\npragma solidity >=0.4.22 <0.9.0;\r\n\r\ncontract Cooldown {\r\n    // Enum status of order\r\n    enum OrderStatus {\r\n        Created,\r\n        Completed\r\n    }\r\n\r\n    /// The Order struct\r\n    struct Order {\r\n        uint256 id;\r\n        address sender;\r\n        address receiver;\r\n        uint256 amount;\r\n        uint256 deadline;\r\n        OrderStatus status;\r\n    }\r\n\r\n    /// The mapping to store orders\r\n    mapping(uint256 => Order) orders;\r\n\r\n    /// The sequence number of orders\r\n    uint256 orderseq;\r\n\r\n    event Deposit(address sender, uint256 amount);\r\n    event Withdraw(address sender);\r\n\r\n    function deposit(uint deadline) public payable {\r\n        /// Increment the order sequence\r\n        orderseq++;\r\n\r\n        /// Create the order register\r\n        orders[orderseq] = Order(\r\n            orderseq,\r\n            msg.sender,\r\n            address(0),\r\n            msg.value,\r\n            deadline,\r\n            OrderStatus.Created\r\n        );\r\n\r\n        emit Deposit(msg.sender, msg.value);\r\n    }\r\n\r\n    function withdraw(uint256 id) public {\r\n        /// Get the order\r\n        Order storage order = orders[id];\r\n\r\n        /// Check the order status\r\n        require(order.status == OrderStatus.Created, \"Order is not created\");\r\n\r\n        /// Check the deadline\r\n        require(order.deadline > block.timestamp, \"Order is not completed\");\r\n\r\n        /// Transfer the amount to sender\r\n        payable(order.sender).transfer(order.amount);\r\n\r\n        /// Update the order status\r\n        order.status = OrderStatus.Completed;\r\n\r\n        emit Withdraw(msg.sender);\r\n    }\r\n}\r\n",
  "sourcePath": "C:\\Users\\yanis.parmentier\\Documents\\CoursAL\\M2\\Projet Blockchain\\cooldown_project\\contracts\\cooldown.sol",
  "compiler": {
    "name": "solc",
    "version": "0.8.16+commit.07a7930e.Emscripten.clang"
  },
  "schemaVersion": "3.4.9",
  "updatedAt": "2022-09-15T09:21:00.124Z",
  "networkType": "ethereum",
  "devdoc": {
    "kind": "dev",
    "methods": {},
    "version": 1
  },
  "userdoc": {
    "kind": "user",
    "methods": {},
    "version": 1
  }
}