{
  "contractName": "Cooldown",
  "abi": [
    {
      "anonymous": false,
      "inputs": [
        {
          "indexed": false,
          "internalType": "address",
          "name": "sender",
          "type": "address"
        },
        {
          "indexed": false,
          "internalType": "uint256",
          "name": "amount",
          "type": "uint256"
        }
      ],
      "name": "Deposit",
      "type": "event"
    },
    {
      "anonymous": false,
      "inputs": [
        {
          "indexed": false,
          "internalType": "address",
          "name": "sender",
          "type": "address"
        }
      ],
      "name": "Withdraw",
      "type": "event"
    },
    {
      "inputs": [
        {
          "internalType": "uint256",
          "name": "",
          "type": "uint256"
        }
      ],
      "name": "orders",
      "outputs": [
        {
          "internalType": "uint256",
          "name": "id",
          "type": "uint256"
        },
        {
          "internalType": "address",
          "name": "sender",
          "type": "address"
        },
        {
          "internalType": "address",
          "name": "receiver",
          "type": "address"
        },
        {
          "internalType": "uint256",
          "name": "amount",
          "type": "uint256"
        },
        {
          "internalType": "uint256",
          "name": "deadline",
          "type": "uint256"
        },
        {
          "internalType": "enum Cooldown.OrderStatus",
          "name": "status",
          "type": "uint8"
        }
      ],
      "stateMutability": "view",
      "type": "function",
      "constant": true
    },
    {
      "inputs": [
        {
          "internalType": "address",
          "name": "receiver",
          "type": "address"
        },
        {
          "internalType": "uint256",
          "name": "deadline",
          "type": "uint256"
        }
      ],
      "name": "deposit",
      "outputs": [],
      "stateMutability": "payable",
      "type": "function",
      "payable": true
    },
    {
      "inputs": [
        {
          "internalType": "uint256",
          "name": "id",
          "type": "uint256"
        }
      ],
      "name": "withdraw",
      "outputs": [],
      "stateMutability": "nonpayable",
      "type": "function"
    }
  ],
  "bytecode": "0x608060405234801561001057600080fd5b50610886806100206000396000f3fe6080604052600436106100345760003560e01c80632e1a7d4d1461003957806347e7ef2414610062578063a85c38ef1461007e575b600080fd5b34801561004557600080fd5b50610060600480360381019061005b91906104eb565b6100c0565b005b61007c60048036038101906100779190610576565b61026b565b005b34801561008a57600080fd5b506100a560048036038101906100a091906104eb565b610427565b6040516100b79695949392919061064b565b60405180910390f35b60008060008381526020019081526020016000209050600060018111156100ea576100e96105d4565b5b8160050160009054906101000a900460ff16600181111561010e5761010d6105d4565b5b1461014e576040517f08c379a000000000000000000000000000000000000000000000000000000000815260040161014590610709565b60405180910390fd5b42816004015411610194576040517f08c379a000000000000000000000000000000000000000000000000000000000815260040161018b90610775565b60405180910390fd5b8060010160009054906101000a900473ffffffffffffffffffffffffffffffffffffffff1673ffffffffffffffffffffffffffffffffffffffff166108fc82600301549081150290604051600060405180830381858888f19350505050158015610202573d6000803e3d6000fd5b5060018160050160006101000a81548160ff0219169083600181111561022b5761022a6105d4565b5b02179055507ff67611512e0a2d90c96fd3f08dca4971bc45fba9dc679eabe839a32abbe58a8e3360405161025f9190610795565b60405180910390a15050565b6001600081548092919061027e906107df565b919050555060006040518060c0016040528060015481526020013373ffffffffffffffffffffffffffffffffffffffff1681526020018473ffffffffffffffffffffffffffffffffffffffff168152602001348152602001838152602001600060018111156102f0576102ef6105d4565b5b81525090508060008060015481526020019081526020016000206000820151816000015560208201518160010160006101000a81548173ffffffffffffffffffffffffffffffffffffffff021916908373ffffffffffffffffffffffffffffffffffffffff16021790555060408201518160020160006101000a81548173ffffffffffffffffffffffffffffffffffffffff021916908373ffffffffffffffffffffffffffffffffffffffff160217905550606082015181600301556080820151816004015560a08201518160050160006101000a81548160ff021916908360018111156103e1576103e06105d4565b5b02179055509050507fe1fffcc4923d04b559f4d29a8bfc6cda04eb5b0d3c460751c2402c5c5cc9109c333460405161041a929190610827565b60405180910390a1505050565b60006020528060005260406000206000915090508060000154908060010160009054906101000a900473ffffffffffffffffffffffffffffffffffffffff16908060020160009054906101000a900473ffffffffffffffffffffffffffffffffffffffff16908060030154908060040154908060050160009054906101000a900460ff16905086565b600080fd5b6000819050919050565b6104c8816104b5565b81146104d357600080fd5b50565b6000813590506104e5816104bf565b92915050565b600060208284031215610501576105006104b0565b5b600061050f848285016104d6565b91505092915050565b600073ffffffffffffffffffffffffffffffffffffffff82169050919050565b600061054382610518565b9050919050565b61055381610538565b811461055e57600080fd5b50565b6000813590506105708161054a565b92915050565b6000806040838503121561058d5761058c6104b0565b5b600061059b85828601610561565b92505060206105ac858286016104d6565b9150509250929050565b6105bf816104b5565b82525050565b6105ce81610538565b82525050565b7f4e487b7100000000000000000000000000000000000000000000000000000000600052602160045260246000fd5b60028110610614576106136105d4565b5b50565b600081905061062582610603565b919050565b600061063582610617565b9050919050565b6106458161062a565b82525050565b600060c08201905061066060008301896105b6565b61066d60208301886105c5565b61067a60408301876105c5565b61068760608301866105b6565b61069460808301856105b6565b6106a160a083018461063c565b979650505050505050565b600082825260208201905092915050565b7f4f72646572206973206e6f742063726561746564000000000000000000000000600082015250565b60006106f36014836106ac565b91506106fe826106bd565b602082019050919050565b60006020820190508181036000830152610722816106e6565b9050919050565b7f4f72646572206973206e6f7420636f6d706c6574656400000000000000000000600082015250565b600061075f6016836106ac565b915061076a82610729565b602082019050919050565b6000602082019050818103600083015261078e81610752565b9050919050565b60006020820190506107aa60008301846105c5565b92915050565b7f4e487b7100000000000000000000000000000000000000000000000000000000600052601160045260246000fd5b60006107ea826104b5565b91507fffffffffffffffffffffffffffffffffffffffffffffffffffffffffffffffff820361081c5761081b6107b0565b5b600182019050919050565b600060408201905061083c60008301856105c5565b61084960208301846105b6565b939250505056fea26469706673582212200bc1ffd7f5e0b1e16ab4bf5281a8aa6f2ae53b5007164b512d6ae270b914b44464736f6c63430008100033",
  "immutableReferences": {},
  "source": "// SPDX-License-Identifier: MIT\r\npragma solidity >=0.4.22 <0.9.0;\r\n\r\ncontract Cooldown {\r\n    /// The Order struct\r\n    struct Order {\r\n        uint256 id;\r\n        address sender;\r\n        address receiver;\r\n        uint256 amount;\r\n        uint256 deadline;\r\n        OrderStatus status;\r\n    }\r\n\r\n    // Enum status of order\r\n    enum OrderStatus {\r\n        Created,\r\n        Completed\r\n    }\r\n\r\n    /// The mapping to store orders\r\n    mapping(uint256 => Order) public orders;\r\n\r\n    /// The sequence number of orders\r\n    uint256 orderseq;\r\n\r\n    event Deposit(address sender, uint256 amount);\r\n    event Withdraw(address sender);\r\n\r\n    function deposit(address receiver, uint256 deadline) public payable {\r\n        /// Increment the order sequence\r\n        orderseq++;\r\n\r\n        /// Create the order register\r\n        Order memory order = Order({\r\n            id: orderseq,\r\n            sender: msg.sender,\r\n            receiver: receiver,\r\n            amount: msg.value,\r\n            deadline: deadline,\r\n            status: OrderStatus.Created\r\n        });\r\n\r\n        /// Store the order\r\n        orders[orderseq] = order;\r\n\r\n        emit Deposit(msg.sender, msg.value);\r\n    }\r\n\r\n    function withdraw(uint256 id) public {\r\n        /// Get the order\r\n        Order storage order = orders[id];\r\n\r\n        /// Check the order status\r\n        require(order.status == OrderStatus.Created, \"Order is not created\");\r\n\r\n        /// Check the deadline\r\n        require(order.deadline > block.timestamp, \"Order is not completed\");\r\n\r\n        /// Transfer the amount to sender\r\n        payable(order.sender).transfer(order.amount);\r\n\r\n        /// Update the order status\r\n        order.status = OrderStatus.Completed;\r\n\r\n        emit Withdraw(msg.sender);\r\n    }\r\n}\r\n",
  "sourcePath": "C:\\Users\\yanis.parmentier\\Documents\\CoursAL\\M2\\Projet Blockchain\\cooldown_project\\contracts\\cooldown.sol",
  "compiler": {
    "name": "solc",
    "version": "0.8.16+commit.07a7930e.Emscripten.clang"
  },
  "schemaVersion": "3.4.9",
  "updatedAt": "2022-09-15T12:09:38.864Z",
  "networkType": "ethereum",
  "devdoc": {
    "kind": "dev",
    "methods": {},
    "version": 1
  },
  "userdoc": {
    "kind": "user",
    "methods": {
      "orders(uint256)": {
        "notice": "The mapping to store orders"
      }
    },
    "version": 1
  }
}